:100000000C94D4000C94AA090C9483090C945C09F8
:100010000C9435090C94FC000C94FC000C940E0913
:100020000C94FC000C94FC000C94D1090C94400A34
:100030000C94FC000C94FC000C94FC000C94FC0050
:100040000C94FC000C94FC000C94FC000C94FC0040
:100050000C94FC000C94FC000C94FC000C94C40860
:100060000C94FC000C94FC000C94FC000C94FC0020
:100070000C94FC000C94FC000C94FC000C94FC0010
:100080000C94FC000C94FC000C94FC000C94FC0000
:100090000C94FC000C94FC000C94FC000C94FC00F0
:1000A0000C94FC000C94FC000C94FC00080B000267
:1000B0000202000009040000010202000005240001
:1000C0001001052401010104240206052406000193
:1000D0000705810310004009040100020A00000026
:1000E00007050202400000070583024000000403E8
:1000F000090412010002EF0201404F1B06920001A9
:1001000001020301537061726B46756E005370619A
:10011000726B46756E2050726F204D6963726F006E
:1001200000000000250028002B002E0031000000F8
:100130000000240027002A002D00300000000000ED
:100140002300260029002C002F00040404040403CB
:100150000405020202020403020202020606060667
:10016000060604040202020404040802011040808E
:10017000401020408040800802040180402010028E
:1001800001108010204040200000000200090F00F4
:1001900000030401000C000000000000000000004B
:1001A000000000000000720C11241FBECFEFDAE047
:1001B000DEBFCDBF11E0A0E0B1E0E6E2F6E202C0B2
:1001C00005900D92A439B107D9F722E0A4E9B1E076
:1001D00001C01D92AD3BB207E1F710E0C4EDD0E0E5
:1001E00004C02197FE010E94C911C33DD107C9F780
:1001F0000E94780F0C9411130C9400004F925F92A0
:100200006F927F928F929F92AF92BF92CF92DF9226
:10021000EF92FF920F931F93CF93DF93E5010C159D
:100220001D052E053F050CF051C02801390146017E
:100230005701882309F44FC0CA01DB0184159505D5
:10024000A605B70514F4D301C201B501A4018815B0
:100250009905AA05BB0514F4AC01BD01C016D10671
:10026000E206F30664F4D501C401841B950BA60BCA
:10027000B70BAC01BD01440D551D661D771D9A01DC
:10028000AB012419350946095709AFEFBFEF0E94AA
:100290007911A501940124193509460957090E94CD
:1002A0005A112883398382E090E0DF91CF911F912A
:1002B0000F91FF90EF90DF90CF90BF90AF909F9005
:1002C0008F907F906F905F904F9008952601370137
:1002D00048015901AECF90E080E0E7CFFC0180916A
:1002E000D601882311F13FB7F89482E08093E900AA
:1002F0002091F200822F90E01816190614F481E084
:1003000090E0882339F0289844E64093D501409145
:10031000F1004083222339F02091F200211103C023
:100320002BE62093E8003FBF08958FEF9FEF0895DD
:1003300081508F3008F047C0E82FF0E0EE55FE4FB7
:100340000C94C911BF01C301B101B701BB01E301A5
:10035000E301E301C601CC01D001D401DA01E301DC
:10036000DE01809180008F778093800008958091D6
:1003700080008F7DF9CF80918000877FF5CF84B595
:100380008F7784BD089584B58F7DFBCF80919000D9
:100390008F77809390000895809190008F7DF9CFA2
:1003A00080919000877FF5CF8091C0008F778093F8
:1003B000C00008958091C0008F7DF9CF8091C20068
:1003C000877F8093C2000895CF93DF93282F30E07A
:1003D000F901E857FE4F8491F901E759FE4FD49196
:1003E000F901E65BFE4FC491CC23A1F081110E947C
:1003F0009801EC2FF0E0EE0FFF1FE45CFE4FA5919B
:10040000B491EC91ED2381E090E009F480E0DF917C
:10041000CF91089580E090E0FACFCF93DF9390E002
:10042000FC01E759FE4F2491865B9E4FFC018491AD
:100430008823D1F090E0880F991FFC01E25DFE4F08
:10044000A591B491FC01E05EFE4FC591D49162305C
:1004500071F49FB7F8943C91822F809583238C93FD
:10046000E8812E2B28839FBFDF91CF9108958FB70E
:10047000F894EC912E2B2C938FBFF6CF3FB7F894C6
:100480008091D1019091D201A091D301B091D4017A
:1004900026B5A89B05C02F3F19F00196A11DB11DDF
:1004A0003FBFBA2FA92F982F8827BC01CD01620F1B
:1004B000711D811D911D42E0660F771F881F991FD6
:1004C0004A95D1F708958F929F92AF92BF92CF92A3
:1004D000DF92EF92FF924B015C010E943E026B01A2
:1004E0007C010E943E026C197D098E099F09683EBD
:1004F000734081059105A8F321E0821A9108A108B3
:10050000B10888EEC80E83E0D81EE11CF11C8114EE
:100510009104A104B10429F7FF90EF90DF90CF90F0
:10052000BF90AF909F908F90089508954091BC0127
:100530005091BD012091BA013091BB014217530780
:10054000B4F49091E8009570E1F39091E80092FD89
:1005500019C08093F1008091BC019091BD0101967A
:100560008F739927892B19F48EEF8093E80080917F
:10057000BC019091BD0101969093BD018093BC0197
:1005800081E0089580E00895EF92FF920F931F930A
:10059000CF93DF93F82E192FE62E042F81E0860FDC
:1005A000880F0E94960283E00E949602CF2DD12FE1
:1005B000EC0EFD2EF11CCE15DF05B9F007FF13C0C0
:1005C000FE0184910E949602182F80E00E949602FC
:1005D000812321968111EFCFDF91CF911F910F9150
:1005E000FF90EF9008958881EDCF81E0F5CFDF9205
:1005F000EF92FF920F931F93CF93DF93D82E8A0130
:10060000EB017B01E40EF51ECE15DF0559F0D7FE98
:1006100012C0FE0184910E94960221968111F4CFAE
:100620000FEF1FEFC801DF91CF911F910F91FF9046
:10063000EF90DF9008958881EECF2FB7F894877000
:100640008093E9009091E800892F807295FF04C0A3
:100650009091F20080E4891B2FBF08957F928F92C2
:100660009F92AF92BF92CF92DF92EF92FF920F9341
:100670001F93CF93DF93C82E8B017A018091D6010F
:10068000811110C08FEF9FEFDF91CF911F910F91DC
:10069000FF90EF90DF90CF90BF90AF909F908F90A2
:1006A0007F9008958091C00180FF05C08091E00097
:1006B00082608093E000CE2DDF2DD12C8AEFB82E02
:1006C0008C2D8770982E8C2D8072882E8C2D8074A6
:1006D000782E9AE3A92E209719F4DD2009F452C050
:1006E0008C2D0E941D0381110AC0BA94BB2051F2C7
:1006F00061E070E080E090E00E946302ECCF8C1734
:100700001D0611F00CF08C2F9FB7F8949092E90021
:100710002091E80025FD02C09FBFDDCF282F30E0EB
:10072000C21BD30B882029F08150A0F01092F10059
:10073000FBCFF801C7FC0AC0815050F041914093B3
:10074000F100FACF44914093F10031968150D0F7F7
:10075000020F131FDD2021F0A092E800D12CDCCF86
:100760008091E80085FD07C0A092E800DD24D394C5
:10077000209791F2F3CF209779F6772069F2A09233
:10078000E800CACF5D9884E68093BF01C7017CCFA3
:10079000615030F02091F100FC0120830196F8CFE8
:1007A000289884E68093D50108958091B201811143
:1007B0000DC082E08093AE0184E08093AF0110927F
:1007C000B1011092B00181E08093B2018EEA91E014
:1007D00008950F931F93CF93DF931F92CDB7DEB78A
:1007E00082E0898342E450E06CEA70E080E80E9495
:1007F000F7020E94D503DC0112960D911C910115A0
:10080000110589F0D801ED91FC910280F381E02D72
:10081000BE016F5F7F4FC801099597FD04C0F801C5
:1008200000851185ECCF89810F90DF91CF911F91C9
:100830000F910895CF93DF93EC0180911D018823E0
:1008400031F083E00E942E031816190634F081E07F
:1008500090E09B838A8380E090E0DF91CF910895C0
:10086000CF93DF931F92CDB7DEB76983DC01ED91A3
:10087000FC910280F381E02D41E050E0BE016F5F0A
:100880007F4F09950F90DF91CF91089583E080937A
:10089000E9008091F200882319F08AE38093E80050
:1008A000089583E00E941D0390E00895CF93DF93A5
:1008B0001F92CDB7DEB7FC018485958597FD08C0F2
:1008C0002FEF3FEF358724870F90DF91CF91089569
:1008D000CE0101960E946E01019719F4898190E082
:1008E000F3CF8FEF9FEFF0CF0F931F93CF93DF9353
:1008F0001F92CDB7DEB78C01FC018485958597FFEB
:100900000BC0CE0101960E946E01019771F489819E
:1009100090E0F80195878487F801848595850F908C
:10092000DF91CF911F910F9108958FEF9FEFF1CF3E
:10093000FC018485958597FD0BC09FB7F89482E0F4
:100940008093E9008091F2009FBF90E001960895A6
:100950009FB7F89482E08093E9008091F2009FBFF6
:1009600090E00895DC01FB0112962C91129784818E
:1009700095812817190641F491818081813A31F4DB
:100980009D7F81E0913009F080E008958132E1F7A8
:100990009B3029F482811F968C9381E008959A30D0
:1009A00099F7828150968C93F8CFDC01FB0188E4A3
:1009B000808389E4818384E482831D969C911D97C2
:1009C0009F709F5B93831D968D919C9124E09695DB
:1009D00087952A95E1F78F708F5B848385E0089572
:1009E000EF92FF920F931F93CF93DF93FB01208130
:1009F000213889F52381223271F5DC0112964C9160
:100A0000248135814217130631F58C01FC01C38521
:100A1000D485F12CE12C209791F04C815D816A8185
:100A20007B818E81811180E80E94F7028F3F9807B9
:100A300059F0E80EF91E0990D881C02DECCF81E065
:100A4000D8011F968C93C701DF91CF911F910F9111
:100A5000FF90EF90089590E080E0F6CFCF93DF9382
:100A6000CDB7DEB769970FB6F894DEBF0FBECDBF26
:100A7000FC01DB018C918F5F8C939E012D5F3F4FBA
:100A80008DE0D9011D928A95E9F729E0298384E058
:100A90008A8391E09D8383E08E832A8721E22B87DE
:100AA0009C879D879F8722E2288B27E02B8B25E060
:100AB0002C8B8E8B20E430E0388F2F8B998F8281A6
:100AC0008B8395858685998B8A8B838180688D8BB6
:100AD00049E150E0BE016F5F7F4F80E00E94F70266
:100AE00069960FB6F894DEBF0FBECDBFDF91CF91F0
:100AF0000895CF93DF938091A601811167C081E0B3
:100B00008093990180939A012FE931E030939C0101
:100B100020939B0110929E0110929D0128E331E0E9
:100B200030939601209395011092A1011092A0019B
:100B30001092A3011092A2018093A4018093A501B9
:100B400081EC80939F010E94D503FC0181819091EB
:100B50009901482F490F5527551F483051059CF5DD
:100B6000A281B381109709F525E931E0338322830F
:100B70002081209397018093980180919A01820FA0
:100B8000808320919B01A22FB0919C018A2F821B10
:100B90008917C8F481813D91C82FD0E0CF5FDE4F27
:100BA00038838F5F8183F2CFD90118962D913C91C4
:100BB000199721153105C1F725E931E019963C93C4
:100BC0002E931897D5CF81E08093A60185E991E017
:100BD000DF91CF910895FC0101900020E9F7319752
:100BE000AF01481B590BBC0187ED91E00C941A042E
:100BF0008F929F92AF92BF920F931F93CF93DF93E9
:100C0000CDB7DEB7A1970FB6F894DEBF0FBECDBF4C
:100C100019A2423008F44AE08E010F5D1F4F842E66
:100C2000912CB12CA12CA50194010E948411E62FD6
:100C3000B901CA01EA30F4F4E05DD801EE938D0108
:100C4000232B242B252B79F790E080E0109719F0C7
:100C5000CD010E94EB05A1960FB6F894DEBF0FBE42
:100C6000CDBFDF91CF911F910F91BF90AF909F901B
:100C70008F900895E95CE1CF4F925F926F927F92DF
:100C80008F929F92AF92BF92CF92DF92EF92FF929C
:100C90000F931F93CF93DF93CDB7DEB74DB65EB6FC
:100CA0008091B8022DB73EB7281B31090FB6F894D2
:100CB0003EBF0FBE2DBF8DB79EB701963C01809001
:100CC0005B02912C8091570290915802D301FC0154
:100CD0009F01281B390B281539051CF421912D93F0
:100CE000F7CF80915C02882359F180915302909153
:100CF000540228E097FD09C068E671E00E94B51132
:100D00006DE270E00E94B511262F809155029091FE
:100D1000560268E097FD08C068E671E00E94B511D0
:100D20006DE270E00E94B511F301E80DF91D90E14C
:100D3000699FB0011124262B2083F40131964F01C5
:100D40005301A80CB91CC0906302D0906402E090DB
:100D50006502F090660200915F021091600220919E
:100D60006102309162024091270250912802609105
:100D7000290270912A0280915D0281700E94FE001A
:100D8000880E991E5301A80CB91CC0906B02D0901C
:100D90006C02E0906D02F0906E020091670210917B
:100DA00068022091690230916A0240912B025091B1
:100DB0002C0260912D0270912E0280915D02869529
:100DC00081700E94FE00880E991E5301A80CB91C68
:100DD000C0907302D0907402E0907502F090760299
:100DE00000916F0210917002209171023091720295
:100DF00040912F0250913002609131027091320285
:100E000080915D0282FB882780F90E94FE00880E97
:100E1000991E5301A80CB91CC0907B02D0907C0293
:100E2000E0907D02F0907E020091770210917802AE
:100E30002091790230917A0240913302509134022C
:100E4000609135027091360280915D0283FB8827A4
:100E500080F90E94FE00880E991E5301A80CB91C4F
:100E6000C0908302D0908402E0908502F0908602C8
:100E700000917F02109180022091810230918202C4
:100E800040913702509138026091390270913A02D4
:100E900080915D02829581700E94FE00880E991EED
:100EA0005301A80CB91CC0908B02D0908C02E0902A
:100EB0008D02F0908E02009187021091880220919D
:100EC000890230918A0240913B0250913C0260912C
:100ED0003D0270913E0280915D0285FB882780F97A
:100EE0000E94FE00880E991E5301A80CB91CC090E8
:100EF0009302D0909402E0909502F09096020091B7
:100F00008F021091900220919102309192024091B3
:100F100043025091440260914502709146028091D3
:100F20005E0281700E94FE00880E991E5301A80C7B
:100F3000B91CC0909B02D0909C02E0909D02F09062
:100F40009E0200919702109198022091990230918F
:100F50009A0240913F02509140026091410270918B
:100F6000420280915E02869581700E94FE00880E8A
:100F7000991E5301A80CB91CC090A302D090A402E2
:100F8000E090A502F090A60200919F021091A002AD
:100F90002091A1023091A202409147025091480253
:100FA0006091490270914A0280915E0282FB88271B
:100FB00080F90E94FE00880E991E5301A80CB91CEE
:100FC000C090AB02D090AC02E090AD02F090AE02C7
:100FD0000091A7021091A8022091A9023091AA02C3
:100FE00040914B0250914C0260914D0270914E0223
:100FF00080915E0283FB882780F90E94FE00880DA5
:10100000991D5301A80EB91EC090B302D090B4022E
:10101000E090B502F090B6020091AF021091B002DC
:101020002091B1023091B20240914F025091500292
:10103000609151027091520280915E02829581709E
:101040000E94FE000E9479054C014091B8028091F7
:10105000B70250E05A01FFEFAF1ABF0A2DB73EB7F3
:101060002A193B090FB6F8943EBF0FBE2DBF0DB72E
:101070001EB70F5F1F4FEDB7FEB78183B301C801E5
:1010800001960E940813F4018381A501B8018064D0
:101090000E942E030FB6F8945EBE0FBE4DBEDF91C8
:1010A000CF911F910F91FF90EF90DF90CF90BF9065
:1010B000AF909F908F907F906F905F904F9008952A
:1010C000CF93DF93C091000184E0C802E0011124B6
:1010D000C093000183E00E94E401892B19F4C260EF
:1010E000C093000182E00E94E401892B29F48091E1
:1010F0000001816080930001C0910001CF70EC2F4E
:101100000C2E000CFF0BEC5DFE4FD0818091940102
:10111000D80FD093940182E591E00E94EB056C2FEB
:10112000CC0F770B880B990B42E00E94F80582E602
:1011300091E00E94EB0585E691E00E94EB056D2FA2
:1011400070E090E080E04AE00E94F80582E691E0DD
:101150000E94EB05D230A8F08091C6019091C701A2
:10116000A091C801B091C9010196A11DB11D809344
:10117000C6019093C701A093C801B093C901109212
:101180009401DF91CF9108951F920F920FB60F92A5
:1011900011242F933F938F939F93AF93BF9380918D
:1011A000CD019091CE01A091CF01B091D0013091AD
:1011B000CC0123E0230F2D3758F50196A11DB11D59
:1011C0002093CC018093CD019093CE01A093CF01C9
:1011D000B093D0018091D1019091D201A091D3011F
:1011E000B091D4010196A11DB11D8093D1019093BE
:1011F000D201A093D301B093D401BF91AF919F913D
:101200008F913F912F910F900FBE0F901F901895C7
:1012100026E8230F0296A11DB11DD2CF1F920F9277
:101220000FB60F9211242F933F934F935F936F93B9
:101230007F938F939F93AF93BF93EF93FF93E0912F
:101240001401F09115010995FF91EF91BF91AF91B4
:101250009F918F917F916F915F914F913F912F91CE
:101260000F900FBE0F901F9018951F920F920FB600
:101270000F9211242F933F934F935F936F937F931C
:101280008F939F93AF93BF93EF93FF93E0911201DE
:10129000F09113010995FF91EF91BF91AF919F914B
:1012A0008F917F916F915F914F913F912F910F900F
:1012B0000FBE0F901F9018951F920F920FB60F92AE
:1012C00011242F933F934F935F936F937F938F934B
:1012D0009F93AF93BF93EF93FF93E0911001F09131
:1012E00011010995FF91EF91BF91AF919F918F915E
:1012F0007F916F915F914F913F912F910F900FBE12
:101300000F901F9018951F920F920FB60F921124F5
:101310002F933F934F935F936F937F938F939F93FD
:10132000AF93BF93EF93FF93E0910E01F0910F0104
:101330000995FF91EF91BF91AF919F918F917F910F
:101340006F915F914F913F912F910F900FBE0F9032
:101350001F9018951F920F920FB60F9211242F9382
:101360003F934F935F936F937F938F939F93AF932D
:10137000BF93EF93FF93E0910C01F0910D0109955C
:10138000FF91EF91BF91AF919F918F917F916F915D
:101390005F914F913F912F910F900FBE0F901F9033
:1013A00018951F920F920FB60F9211248F939F934F
:1013B0008091E1009091E100937F9093E10083FFA1
:1013C0000FC01092E90091E09093EB001092EC00B6
:1013D00092E39093ED001092D60198E09093F00084
:1013E00082FF22C093E09093E9009091F20099234C
:1013F00019F09AE39093E8009091BF01992341F08E
:101400009091BF0191509093BF01911101C05D9ADD
:101410009091D501992341F09091D50191509093ED
:10142000D501911101C0289A84FF18C08091E20073
:101430008E7E81608093E2008091E1008F7E8093B8
:10144000E1008091C0018E7E80618093C0019F91F8
:101450008F910F900FBE0F901F90189580FFF7CFC0
:101460008091E2008E7E80618093E2008091E100B5
:101470008E7E8093E1008091C0018E7E8160E5CFF9
:101480001F920F920FB60F921124CF92DF92EF921C
:10149000FF920F931F932F933F934F935F936F93FD
:1014A0007F938F939F93AF93BF93EF93FF93CF93CC
:1014B000DF93CDB7DEB76C97DEBFCDBF1092E900EA
:1014C0008091E80083FF25C068E0CE0145960E9428
:1014D000C80382EF8093E8008D8987FF39C090911F
:1014E000E80090FFFCCF982F907609F034C19E89D8
:1014F0004F89588D2F89F88C911131C0803861F552
:101500008091C1018093F1001092F1008EEF8093E1
:10151000E8006C960FB6F894DEBF0FBECDBFDF912A
:10152000CF91FF91EF91BF91AF919F918F917F915B
:101530006F915F914F913F912F911F910F91FF906C
:10154000EF90DF90CF900F900FBE0F901F901895E7
:101550009EEF9093E800C7CF1092F100D5CF913065
:1015600059F48111D3CF4130510581F68091C101E9
:101570008D7F8093C101CACF933049F48111C6CFCA
:101580004130510519F68091C1018260F2CF95304A
:1015900041F48091E80080FFFCCF20682093E300B5
:1015A000B5CF963009F0A9C00B8D1C8D22E01092AA
:1015B000E9001092BD011092BC01F2122EC01092EF
:1015C000BB011092BA010E94E9031F8299E099833E
:1015D000FA8291E09E8390EA98879AEF998720910A
:1015E000BC013091BD01275F3F4F3C832B838D832E
:1015F0001092E9001092BD011092BC011093BB0142
:101600000093BA0149E050E0BE016F5F7F4F80E078
:101610000E94F7020E94E90379CF1093BB01009367
:10162000BA010E94D503DC0112960D911C9101159F
:10163000110509F451C1D801ED91FC910480F581A7
:10164000E02DBE016B5E7F4FC8010995009709F040
:101650003EC1F80100851185EACFF3E0FF120EC00C
:101660008F89882309F440C0823061F440E862E148
:101670008DE091E00E94C402811148CF81E2809305
:10168000EB0047CF813029F440E868E084E091E046
:10169000F1CF833099F70E94D503DC011296ED90CB
:1016A000FC908E010F5F1F4F6801E114F10479F087
:1016B000D701ED91FC910680F781E02DB801C701BB
:1016C0000995080F111DF701E084F184EECFD801D0
:1016D0001C92F60101900020E9F73197BF016C19C7
:1016E0007D0940E0C601C6CF6EEE70E0FB0144917B
:1016F00050E080E80E94F70209CF973009F4BECF8E
:10170000983021F481E08093F10000CF993009F006
:10171000FDCE837009F0B2CFE2E0F1E081E031E08C
:1017200096E32191222371F08093E9003093EB003E
:10173000DF0111972C912093EC009093ED008F5FC7
:10174000873079F78EE78093EA001092EA008F895C
:101750008093D601DBCE8B8D9C8D1092E900109288
:10176000BD011092BC019093BB018093BA01898D99
:10177000811192C08E899D89913A49F4813209F094
:101780007DCF47E050E066E171E080E0B3CF913279
:1017900009F074CF833269F48F89988DB0E0A0E0AE
:1017A0008093080190930901A0930A01B0930B0163
:1017B000ADCE803269F48091E80082FFFCCF67E013
:1017C00086E191E00E94C8038BEF8093E8009ECEF3
:1017D000823209F09BCE8F8980931D01EEEFFFE7E7
:1017E000859194918B3F9C4D51F1E0E0F8E0809120
:1017F000160190911701A0911801B0911901803B39
:101800009440A105B105F1F480911D0180FD1AC03D
:10181000EE3F8AE0F80789F587E797E791838083B1
:10182000809160008093BE0188E19BE00FB6F89440
:10183000A895809360000FBE9093600067CEEEEF96
:10184000FAE0D5CF808191818737974709F05ECE46
:10185000A895809160008861809360008091BE01AE
:1018600080936000EE3F2AE0F20789F08091FE0A43
:101870009091FF0A9183808349CE8081918187373F
:10188000980751F29093FF0A8093FE0AC5CF1092F9
:10189000FF0A1092FE0A3ACE0E94D503DC0112968E
:1018A0000D911C910115110509F4E8CED801ED91B7
:1018B000FC910190F081E02DBE016B5E7F4FC8016D
:1018C0000995811123CEF80100851185EBCF1816FB
:1018D00019060CF41BCED2CEF1E0FF12BECE62EFA1
:1018E00070E004CFCF92DF92EF92FF920F931F939D
:1018F000CF93DF93CDB7DEB7C659D1090FB6F894B1
:10190000DEBF0FBECDBF1092DA011092D90188EE72
:1019100093E0A0E0B0E08093DB019093DC01A09322
:10192000DD01B093DE0184E491E09093D8018093CF
:10193000D7018FEF9FEF9093E4018093E301109222
:1019400058021092570210925B0210925F0210929E
:10195000600210926102109262028FEF93E0A0E0A9
:10196000B0E08093630290936402A0936502B09309
:101970006602109267021092680210926902109239
:101980006A0280936B0290936C02A0936D02B093F5
:101990006E0210926F0210927002109271021092F9
:1019A00072028093730290937402A0937502B093B5
:1019B00076021092770210927802109279021092B9
:1019C0007A0280937B0290937C02A0937D02B09375
:1019D0007E0210927F021092800210928102109279
:1019E00082028093830290938402A0938502B09335
:1019F0008602109287021092880210928902109239
:101A00008A0280938B0290938C02A0938D02B093F4
:101A10008E0210928F0210929002109291021092F8
:101A200092028093930290939402A0939502B093B4
:101A300096021092970210929802109299021092B8
:101A40009A0280939B0290939C02A0939D02B09374
:101A50009E0210929F021092A0021092A102109278
:101A6000A2028093A3029093A402A093A502B09334
:101A7000A6021092A7021092A8021092A902109238
:101A8000AA028093AB029093AC02A093AD02B093F4
:101A9000AE021092AF021092B0021092B1021092F8
:101AA000B2028093B3029093B402A093B502B093B4
:101AB000B60253E05093B70230E230935A0222E06C
:101AC00020935C028FE380935D028FE180935E023E
:101AD00045E0498391E09A8389E08B83A4E0AC835D
:101AE000F1EAFD839E8365E86F83588749878A877B
:101AF00059E15B879C8759E25D873E8775E17F8767
:101B0000188A15E2198B9A8B65E76B8B9C8B55E9CC
:101B10005D8B3E8B35E53F8B188EB5E6B98F1A8EFF
:101B200031E83B8F2C8F4D8F9E8F8F8FE9E3CE2E28
:101B3000C8A279A31AA21BA307E0D02EDCA2E5E37A
:101B4000EDA31EA206E4E02EEFA20BE3F02EF8A612
:101B500099A7BAA704E10BA76CA7ADA75EA79FA79B
:101B600038AB29AB8AABCBAA7CAB1DAA1EABDFAAD4
:101B7000E8AF19AEEAAEFBAE9CAFBDAF0EAF6FAF34
:101B80002196AFAF219722965FAF229723969FAF02
:101B9000239724963FAF249725962FAF2597269617
:101BA0008FAF269727969FAF279728967FAF2897C6
:101BB00029961FAE2997B7E22A96BFAF2A979FEFC3
:101BC0002B969FAF2B972C969FAF2C972D961FAEE1
:101BD0002D972E961FAE2E972F966FAF2F97A0E1C1
:101BE0006096AFAF609761965FAF619716E06296BF
:101BF0001FAF62976396FFAF639764961FAE6497BB
:101C000065968FAF659710E366961FAF66976796E8
:101C10008FAF679711E368961FAF689769968FAF8C
:101C2000699712E36A961FAF6A976B968FAF6B97AF
:101C300013E36C961FAF6C976D968FAF6D9714E39F
:101C40006E961FAF6E976F968FAF6F97A096EFAFA0
:101C5000A097A1963FAFA197A2962FAFA297E0ECD5
:101C6000A396EFAFA397A4964FAFA497A5962FAFD7
:101C7000A597A6967FAFA697A7961FAEA797A896FB
:101C8000BFAFA897A9969FAFA997AA969FAFAA970B
:101C9000AB961FAEAB97AC961FAEAC97AD966FAF41
:101CA000AD97AE96AFAFAE97AF965FAFAF97E096FA
:101CB0004FAFE097E196FFAFE197E2961FAEE29754
:101CC000E3968FAFE3979AEBE4969FAFE497E596A0
:101CD0008FAFE5979BEBE6969FAFE697E7968FAFC2
:101CE000E79794ECE8969FAFE897E9968FAFE9976E
:101CF00095ECEA969FAFEA97EB968FAFEB9788EC5F
:101D0000EC968FAFEC97ED963FAFED97EE962FAF39
:101D1000EE97EF96EFAFEF97C158DF4FE883CF57BD
:101D2000D0408FE790E00E94E3117C018FE7FE0135
:101D30003196D70101900D928A95E1F787E090E006
:101D40000E94E3118C01DC0111961C921E921396E5
:101D5000FC92EE9212978FE790E015969C938E93EB
:101D6000149716961C920E947905FC01A385B485F0
:101D7000109709F0A3C01487038785859685D8013D
:101D800014962D913C91820F931F96878587909191
:101D90005A02892F869586958695977009F096C088
:101DA00080935B0210915B02812F90E0009711F409
:101DB00081E090E00E94E3119093580280935702D3
:101DC00081E090915C02911101C080E01A5E810F68
:101DD0008093B802109227021092280210922902D2
:101DE00010922A0210922B0210922C0210922D02B5
:101DF00010922E0210922F02109230021092310295
:101E00001092320210923302109234021092350274
:101E10001092360210923702109238021092390254
:101E200010923A0210923B0210923C0210923D0234
:101E300010923E0210923F02109240021092410214
:101E400010924202109243021092440210924502F4
:101E500010924602109247021092480210924902D4
:101E600010924A0210924B0210924C0210924D02B4
:101E700010924E0210924F02109250021092510294
:101E8000109252028FEF9FEF90935402809353026F
:101E9000909356028093550290E080E020915B027F
:101EA00028171906A9F0A4F0E0915702F091580202
:101EB000E80FF91F10820196F1CFDC018D919C9102
:101EC00011970097D1F70D931C9357CF8F5F68CF71
:101ED000CA56DF4F0FB6F894DEBF0FBECDBFDF91FD
:101EE000CF911F910F91FF90EF90DF90CF900895C9
:101EF000789484B5826084BD84B5816084BD85B5E5
:101F0000826085BD85B5816085BD80916E008160F0
:101F100080936E0010928100809181008260809396
:101F20008100809181008160809381008091800098
:101F30008160809380008091910082608093910005
:101F400080919100816080939100809190008160E8
:101F5000809390008091C10084608093C100809143
:101F6000C10082608093C1008091C1008160809334
:101F7000C1008091C30081608093C3008091C00044
:101F800082608093C0008091C20081608093C20013
:101F900080917A00846080937A0080917A008260D8
:101FA00080937A0080917A00816080937A0080919A
:101FB0007A00806880937A001092D6011092C10155
:101FC0001092C0018091D70081608093D70080EA91
:101FD0008093D80089B5806189BD89B5826089BD4B
:101FE00009B400FEFDCF61E070E080E090E00E9467
:101FF00063028091D8008F7C80618093D8008091AB
:10200000E000807F8093E0008091E1008E7E8093ED
:10201000E1008DE08093E200559A209A62E080E131
:102020000E940D0262E083E00E940D0262E082E005
:102030000E940D0261E085E00E940D02EDE8F1E0F2
:102040008491EEE6F1E0D491EFE4F1E0C491CC2389
:1020500089F081110E949801EC2FF0E0EE0FFF1F34
:10206000E05EFE4FA591B4918FB7F894EC91ED2B03
:10207000EC938FBF20E638E030930D0120930C01E4
:10208000809169008C7F816080936900E89A309329
:102090000F0120930E0180916900837F84608093FB
:1020A0006900E99A80E10E94E4019093CB0180935A
:1020B000CA0181E0809359020E943C068FEF9FEF96
:1020C0009093E4018093E301C0911D016AE070E008
:1020D00080E090E00E946302CC23B1F385E791E0B9
:1020E0000E94EB0582E691E00E94EB05C0E0D0E0A3
:1020F000C090CA01D090CB0180E10E94E4017C0134
:10210000C816D906F1F080915A02E110AAC08823BE
:1021100061F0E0915702F091580280818E7F8083B8
:102120008091590281110E943C0681E0E816F10479
:1021300041F485E891E00E94EB0582E691E00E947F
:10214000EB05F092CB01E092CA014091C60150919B
:10215000C7016091C8017091C9018091C20190913D
:10216000C301A091C401B091C501481759076A077E
:102170007B0709F470C08CE891E00E94EB05C090E9
:10218000C601D090C701E090C801F090C9014AE0B3
:10219000C701B601F7FE0DC06DE287ED91E00E9428
:1021A000300466277727CB016C197D098E099F09BA
:1021B0004AE00E94F80582E691E00E94EB05C0909B
:1021C000C601D090C701E090C801F090C9014091CC
:1021D000C2015091C3016091C4017091C501809109
:1021E0005A024C155D056E057F050CF044C0833026
:1021F00060F0E0915702F091580280818460808302
:102200008091590281110E943C0668E270E080E0F2
:1022100090E00E94630280915A02833060F0E09166
:102220005702F091580280818B7F80838091590200
:1022300081110E943C068091C6019091C701A09136
:10224000C801B091C9018093C2019093C301A093CA
:10225000C401B093C501209709F44ACF0E94000041
:1022600047CF882309F461CFE0915702F0915802DB
:102270008081816054CF823060F0E0915702F0910C
:1022800058028081826080838091590281110E946E
:102290003C0668E270E080E090E00E94630280917A
:1022A0005A02823040F2E0915702F0915802808148
:1022B0008D7FBBCF052E97FB1EF400940E947111F9
:1022C00057FD07D00E94841107FC03D04EF40C94F4
:1022D000711150954095309521953F4F4F4F5F4F6D
:1022E000089590958095709561957F4F8F4F9F4F82
:1022F00008950E94A611A59F900DB49F900DA49FD4
:10230000800D911D11240895A1E21A2EAA1BBB1B5A
:10231000FD010DC0AA1FBB1FEE1FFF1FA217B307B1
:10232000E407F50720F0A21BB30BE40BF50B661FC7
:10233000771F881F991F1A9469F76095709580958B
:1023400090959B01AC01BD01CF010895A29FB00102
:10235000B39FC001A39F700D811D1124911DB29FD9
:10236000700D811D1124911D089597FB072E16F401
:10237000009407D077FD09D00E94CF1107FC05D04B
:102380003EF4909581959F4F0895709561957F4F8C
:102390000895EE0FFF1F0590F491E02D0994AA1BFC
:1023A000BB1B51E107C0AA1FBB1FA617B70710F040
:1023B000A61BB70B881F991F5A95A9F78095909572
:1023C000BC01CD0108950F931F93CF93DF9382300B
:1023D000910510F482E090E0E091BB02F091BC0224
:1023E00030E020E0B0E0A0E0309799F4211531050D
:1023F00009F44AC0281B390B24303105D8F58A81ED
:102400009B816115710589F1FB0193838283FE0134
:1024100011C0408151810281138148175907E0F0B2
:102420004817590799F4109761F012960C93129778
:1024300013961C933296CF01DF91CF911F910F918C
:1024400008950093BB021093BC02F4CF211531050F
:1024500051F04217530738F0A901DB019A01BD0181
:10246000DF01F801C1CFEF01F9CF9093BC02809357
:10247000BB02CDCFFE01E20FF31F81939193225057
:10248000310939832883D7CF2091B9023091BA021C
:10249000232B41F420912001309121013093BA0285
:1024A0002093B90220911E0130911F0121153105A1
:1024B00041F42DB73EB74091220150912301241BD6
:1024C000350BE091B902F091BA02E217F307A0F4DC
:1024D0002E1B3F0B2817390778F0AC014E5F5F4F7A
:1024E0002417350748F04E0F5F1F5093BA024093F0
:1024F000B902819391939FCFF0E0E0E09CCFCF931E
:10250000DF930097E9F0FC01329713821282A091C9
:10251000BB02B091BC02ED0130E020E01097A1F4C5
:1025200020813181820F931F2091B9023091BA022C
:102530002817390709F061C0F093BA02E093B90295
:10254000DF91CF910895EA01CE17DF07E8F54A81C0
:102550005B819E0141155105B1F7E901FB83EA83D7
:1025600049915991C40FD51FEC17FD0761F4808183
:1025700091810296840F951FE90199838883828156
:1025800093819B838A83F0E0E0E012968D919C9189
:1025900013970097B9F52D913C911197CD010296B3
:1025A000820F931F2091B9023091BA022817390780
:1025B00039F6309751F51092BC021092BB02B093DD
:1025C000BA02A093B902BCCFD383C28340815181A8
:1025D000840F951FC817D90761F44E5F5F4F88813C
:1025E0009981480F591F518340838A819B8193832E
:1025F00082832115310509F0B0CFF093BC02E0933E
:10260000BB029ECFFD01DC01C0CF13821282D7CF67
:10261000FB01DC0102C001900D9241505040D8F7FF
:062620000895F894FFCFBD
:102626000300C18081000000FFFFFFFF95029502B5
:1026360095029502950200E10000000000000000EE
:10264600BD02800000FF0100010000FFFF00000145
:102656000001FF0000000000B2042E05F004D504BE
:102666000000000030041A0451044604980456047D
:102676007404557064617465642056616C75653ABE
:1026860020000D0A004E657720436F756E743A2060
:102696002020202000536372697074205374617285
:1026A60074696E6700427574746F6E00526F746160
:0426B6007279200015
:00000001FF
